{
  "_format": "hh-sol-artifact-1",
  "contractName": "Blog",
  "sourceName": "contracts/Blog.sol",
  "abi": [
    {
      "inputs": [
        {
          "internalType": "string",
          "name": "_name",
          "type": "string"
        }
      ],
      "stateMutability": "nonpayable",
      "type": "constructor"
    },
    {
      "anonymous": false,
      "inputs": [
        {
          "indexed": false,
          "internalType": "uint256",
          "name": "id",
          "type": "uint256"
        },
        {
          "indexed": false,
          "internalType": "string",
          "name": "title",
          "type": "string"
        },
        {
          "indexed": false,
          "internalType": "string",
          "name": "hash",
          "type": "string"
        }
      ],
      "name": "PostCreated",
      "type": "event"
    },
    {
      "anonymous": false,
      "inputs": [
        {
          "indexed": false,
          "internalType": "uint256",
          "name": "id",
          "type": "uint256"
        },
        {
          "indexed": false,
          "internalType": "string",
          "name": "title",
          "type": "string"
        },
        {
          "indexed": false,
          "internalType": "string",
          "name": "hash",
          "type": "string"
        },
        {
          "indexed": false,
          "internalType": "bool",
          "name": "published",
          "type": "bool"
        }
      ],
      "name": "PostUpdated",
      "type": "event"
    },
    {
      "inputs": [
        {
          "internalType": "string",
          "name": "title",
          "type": "string"
        },
        {
          "internalType": "string",
          "name": "hash",
          "type": "string"
        }
      ],
      "name": "createPost",
      "outputs": [],
      "stateMutability": "nonpayable",
      "type": "function"
    },
    {
      "inputs": [
        {
          "internalType": "string",
          "name": "hash",
          "type": "string"
        }
      ],
      "name": "fetchPost",
      "outputs": [
        {
          "components": [
            {
              "internalType": "uint256",
              "name": "id",
              "type": "uint256"
            },
            {
              "internalType": "string",
              "name": "title",
              "type": "string"
            },
            {
              "internalType": "string",
              "name": "content",
              "type": "string"
            },
            {
              "internalType": "bool",
              "name": "published",
              "type": "bool"
            }
          ],
          "internalType": "struct Blog.Post",
          "name": "",
          "type": "tuple"
        }
      ],
      "stateMutability": "view",
      "type": "function"
    },
    {
      "inputs": [],
      "name": "fetchPosts",
      "outputs": [
        {
          "components": [
            {
              "internalType": "uint256",
              "name": "id",
              "type": "uint256"
            },
            {
              "internalType": "string",
              "name": "title",
              "type": "string"
            },
            {
              "internalType": "string",
              "name": "content",
              "type": "string"
            },
            {
              "internalType": "bool",
              "name": "published",
              "type": "bool"
            }
          ],
          "internalType": "struct Blog.Post[]",
          "name": "",
          "type": "tuple[]"
        }
      ],
      "stateMutability": "view",
      "type": "function"
    },
    {
      "inputs": [],
      "name": "getGreeting",
      "outputs": [
        {
          "internalType": "string",
          "name": "",
          "type": "string"
        }
      ],
      "stateMutability": "pure",
      "type": "function"
    },
    {
      "inputs": [],
      "name": "name",
      "outputs": [
        {
          "internalType": "string",
          "name": "",
          "type": "string"
        }
      ],
      "stateMutability": "view",
      "type": "function"
    },
    {
      "inputs": [],
      "name": "owner",
      "outputs": [
        {
          "internalType": "address",
          "name": "",
          "type": "address"
        }
      ],
      "stateMutability": "view",
      "type": "function"
    },
    {
      "inputs": [
        {
          "internalType": "address",
          "name": "newOwner",
          "type": "address"
        }
      ],
      "name": "transferOwnership",
      "outputs": [],
      "stateMutability": "nonpayable",
      "type": "function"
    },
    {
      "inputs": [
        {
          "internalType": "string",
          "name": "_name",
          "type": "string"
        }
      ],
      "name": "updateName",
      "outputs": [],
      "stateMutability": "nonpayable",
      "type": "function"
    },
    {
      "inputs": [
        {
          "internalType": "uint256",
          "name": "postId",
          "type": "uint256"
        },
        {
          "internalType": "string",
          "name": "title",
          "type": "string"
        },
        {
          "internalType": "string",
          "name": "hash",
          "type": "string"
        },
        {
          "internalType": "bool",
          "name": "published",
          "type": "bool"
        }
      ],
      "name": "updatePost",
      "outputs": [],
      "stateMutability": "nonpayable",
      "type": "function"
    }
  ],
  "bytecode": "0x60806040523480156200001157600080fd5b5060405162001bef38038062001bef8339818101604052810190620000379190620002d5565b620000836040518060400160405280601981526020017f4465706c6f79696e6720426c6f672077697468206e616d653a0000000000000081525082620000e460201b62000b4c1760201c565b80600090805190602001906200009b929190620001b3565b5033600160006101000a81548173ffffffffffffffffffffffffffffffffffffffff021916908373ffffffffffffffffffffffffffffffffffffffff1602179055505062000522565b620001868282604051602401620000fd9291906200035b565b6040516020818303038152906040527f4b5c4277000000000000000000000000000000000000000000000000000000007bffffffffffffffffffffffffffffffffffffffffffffffffffffffff19166020820180517bffffffffffffffffffffffffffffffffffffffffffffffffffffffff83818316178352505050506200018a60201b60201c565b5050565b60008151905060006a636f6e736f6c652e6c6f679050602083016000808483855afa5050505050565b828054620001c19062000447565b90600052602060002090601f016020900481019282620001e5576000855562000231565b82601f106200020057805160ff191683800117855562000231565b8280016001018555821562000231579182015b828111156200023057825182559160200191906001019062000213565b5b50905062000240919062000244565b5090565b5b808211156200025f57600081600090555060010162000245565b5090565b60006200027a6200027484620003bf565b62000396565b9050828152602081018484840111156200029357600080fd5b620002a084828562000411565b509392505050565b600082601f830112620002ba57600080fd5b8151620002cc84826020860162000263565b91505092915050565b600060208284031215620002e857600080fd5b600082015167ffffffffffffffff8111156200030357600080fd5b6200031184828501620002a8565b91505092915050565b60006200032782620003f5565b62000333818562000400565b93506200034581856020860162000411565b620003508162000511565b840191505092915050565b600060408201905081810360008301526200037781856200031a565b905081810360208301526200038d81846200031a565b90509392505050565b6000620003a2620003b5565b9050620003b082826200047d565b919050565b6000604051905090565b600067ffffffffffffffff821115620003dd57620003dc620004e2565b5b620003e88262000511565b9050602081019050919050565b600081519050919050565b600082825260208201905092915050565b60005b838110156200043157808201518184015260208101905062000414565b8381111562000441576000848401525b50505050565b600060028204905060018216806200046057607f821691505b60208210811415620004775762000476620004b3565b5b50919050565b620004888262000511565b810181811067ffffffffffffffff82111715620004aa57620004a9620004e2565b5b80604052505050565b7f4e487b7100000000000000000000000000000000000000000000000000000000600052602260045260246000fd5b7f4e487b7100000000000000000000000000000000000000000000000000000000600052604160045260246000fd5b6000601f19601f8301169050919050565b6116bd80620005326000396000f3fe608060405234801561001057600080fd5b50600436106100935760003560e01c80638da5cb5b116100665780638da5cb5b1461011e578063abaddd7f1461013c578063cd349fe91461015a578063f2fde38b14610176578063fe50cc721461019257610093565b806306fdde0314610098578063392338f5146100b657806344828659146100d257806384da92a714610102575b600080fd5b6100a06101b0565b6040516100ad919061123e565b60405180910390f35b6100d060048036038101906100cb9190610ea0565b61023e565b005b6100ec60048036038101906100e79190610e5f565b6103f9565b6040516100f99190611297565b60405180910390f35b61011c60048036038101906101179190610e5f565b61057a565b005b610126610594565b6040516101339190611201565b60405180910390f35b6101446105ba565b604051610151919061121c565b60405180910390f35b610174600480360381019061016f9190610f0c565b610843565b005b610190600480360381019061018b9190610e36565b610a71565b005b61019a610b0f565b6040516101a7919061123e565b60405180910390f35b600080546101bd906114f8565b80601f01602080910402602001604051908101604052809291908181526020018280546101e9906114f8565b80156102365780601f1061020b57610100808354040283529160200191610236565b820191906000526020600020905b81548152906001019060200180831161021957829003601f168201915b505050505081565b600160009054906101000a900473ffffffffffffffffffffffffffffffffffffffff1673ffffffffffffffffffffffffffffffffffffffff163373ffffffffffffffffffffffffffffffffffffffff161461029857600080fd5b6102a26002610be8565b60006102ae6002610bfe565b90506000600360008381526020019081526020016000209050818160000181905550838160010190805190602001906102e8929190610c35565b5060018160030160006101000a81548160ff0219169083151502179055508281600201908051906020019061031e929190610c35565b508060048460405161033091906111ea565b908152602001604051809103902060008201548160000155600182018160010190805461035c906114f8565b610367929190610cbb565b50600282018160020190805461037c906114f8565b610387929190610cbb565b506003820160009054906101000a900460ff168160030160006101000a81548160ff0219169083151502179055509050507fe6851f0b99a9d86e5d68a97f65218980851216ce297f789c6b6b7e82ca1d90c88285856040516103eb939291906112b9565b60405180910390a150505050565b610401610d48565b60048260405161041191906111ea565b908152602001604051809103902060405180608001604052908160008201548152602001600182018054610444906114f8565b80601f0160208091040260200160405190810160405280929190818152602001828054610470906114f8565b80156104bd5780601f10610492576101008083540402835291602001916104bd565b820191906000526020600020905b8154815290600101906020018083116104a057829003601f168201915b505050505081526020016002820180546104d6906114f8565b80601f0160208091040260200160405190810160405280929190818152602001828054610502906114f8565b801561054f5780601f106105245761010080835404028352916020019161054f565b820191906000526020600020905b81548152906001019060200180831161053257829003601f168201915b505050505081526020016003820160009054906101000a900460ff1615151515815250509050919050565b8060009080519060200190610590929190610c35565b5050565b600160009054906101000a900473ffffffffffffffffffffffffffffffffffffffff1681565b606060006105c86002610bfe565b90506000808267ffffffffffffffff81111561060d577f4e487b7100000000000000000000000000000000000000000000000000000000600052604160045260246000fd5b60405190808252806020026020018201604052801561064657816020015b610633610d48565b81526020019060019003908161062b5790505b50905060005b838110156108395760006001826106639190611418565b9050600060036000838152602001908152602001600020905080604051806080016040529081600082015481526020016001820180546106a2906114f8565b80601f01602080910402602001604051908101604052809291908181526020018280546106ce906114f8565b801561071b5780601f106106f05761010080835404028352916020019161071b565b820191906000526020600020905b8154815290600101906020018083116106fe57829003601f168201915b50505050508152602001600282018054610734906114f8565b80601f0160208091040260200160405190810160405280929190818152602001828054610760906114f8565b80156107ad5780601f10610782576101008083540402835291602001916107ad565b820191906000526020600020905b81548152906001019060200180831161079057829003601f168201915b505050505081526020016003820160009054906101000a900460ff16151515158152505084868151811061080a577f4e487b7100000000000000000000000000000000000000000000000000000000600052603260045260246000fd5b60200260200101819052506001856108229190611418565b9450505080806108319061155b565b91505061064c565b5080935050505090565b600160009054906101000a900473ffffffffffffffffffffffffffffffffffffffff1673ffffffffffffffffffffffffffffffffffffffff163373ffffffffffffffffffffffffffffffffffffffff161461089d57600080fd5b6000600360008681526020019081526020016000209050838160010190805190602001906108cc929190610c35565b50818160030160006101000a81548160ff02191690831515021790555082816002019080519060200190610901929190610c35565b508060036000878152602001908152602001600020600082015481600001556001820181600101908054610934906114f8565b61093f929190610cbb565b506002820181600201908054610954906114f8565b61095f929190610cbb565b506003820160009054906101000a900460ff168160030160006101000a81548160ff021916908315150217905550905050806004846040516109a191906111ea565b90815260200160405180910390206000820154816000015560018201816001019080546109cd906114f8565b6109d8929190610cbb565b5060028201816002019080546109ed906114f8565b6109f8929190610cbb565b506003820160009054906101000a900460ff168160030160006101000a81548160ff0219169083151502179055509050507f9f8eb93fc073102bbd3072664634ab200707a4f11d94aace9cc8d0e4d019eff58160000154858585604051610a6294939291906112fe565b60405180910390a15050505050565b600160009054906101000a900473ffffffffffffffffffffffffffffffffffffffff1673ffffffffffffffffffffffffffffffffffffffff163373ffffffffffffffffffffffffffffffffffffffff1614610acb57600080fd5b80600160006101000a81548173ffffffffffffffffffffffffffffffffffffffff021916908373ffffffffffffffffffffffffffffffffffffffff16021790555050565b60606040518060400160405280600b81526020017f48656c6c6f20776f726c64000000000000000000000000000000000000000000815250905090565b610be48282604051602401610b62929190611260565b6040516020818303038152906040527f4b5c4277000000000000000000000000000000000000000000000000000000007bffffffffffffffffffffffffffffffffffffffffffffffffffffffff19166020820180517bffffffffffffffffffffffffffffffffffffffffffffffffffffffff8381831617835250505050610c0c565b5050565b6001816000016000828254019250508190555050565b600081600001549050919050565b60008151905060006a636f6e736f6c652e6c6f679050602083016000808483855afa5050505050565b828054610c41906114f8565b90600052602060002090601f016020900481019282610c635760008555610caa565b82601f10610c7c57805160ff1916838001178555610caa565b82800160010185558215610caa579182015b82811115610ca9578251825591602001919060010190610c8e565b5b509050610cb79190610d72565b5090565b828054610cc7906114f8565b90600052602060002090601f016020900481019282610ce95760008555610d37565b82601f10610cfa5780548555610d37565b82800160010185558215610d3757600052602060002091601f016020900482015b82811115610d36578254825591600101919060010190610d1b565b5b509050610d449190610d72565b5090565b60405180608001604052806000815260200160608152602001606081526020016000151581525090565b5b80821115610d8b576000816000905550600101610d73565b5090565b6000610da2610d9d84611376565b611351565b905082815260208101848484011115610dba57600080fd5b610dc58482856114b6565b509392505050565b600081359050610ddc81611642565b92915050565b600081359050610df181611659565b92915050565b600082601f830112610e0857600080fd5b8135610e18848260208601610d8f565b91505092915050565b600081359050610e3081611670565b92915050565b600060208284031215610e4857600080fd5b6000610e5684828501610dcd565b91505092915050565b600060208284031215610e7157600080fd5b600082013567ffffffffffffffff811115610e8b57600080fd5b610e9784828501610df7565b91505092915050565b60008060408385031215610eb357600080fd5b600083013567ffffffffffffffff811115610ecd57600080fd5b610ed985828601610df7565b925050602083013567ffffffffffffffff811115610ef657600080fd5b610f0285828601610df7565b9150509250929050565b60008060008060808587031215610f2257600080fd5b6000610f3087828801610e21565b945050602085013567ffffffffffffffff811115610f4d57600080fd5b610f5987828801610df7565b935050604085013567ffffffffffffffff811115610f7657600080fd5b610f8287828801610df7565b9250506060610f9387828801610de2565b91505092959194509250565b6000610fab83836110f8565b905092915050565b610fbc8161146e565b82525050565b6000610fcd826113b7565b610fd781856113da565b935083602082028501610fe9856113a7565b8060005b8581101561102557848403895281516110068582610f9f565b9450611011836113cd565b925060208a01995050600181019050610fed565b50829750879550505050505092915050565b61104081611480565b82525050565b61104f81611480565b82525050565b6000611060826113c2565b61106a81856113eb565b935061107a8185602086016114c5565b61108381611631565b840191505092915050565b6000611099826113c2565b6110a381856113fc565b93506110b38185602086016114c5565b6110bc81611631565b840191505092915050565b60006110d2826113c2565b6110dc818561140d565b93506110ec8185602086016114c5565b80840191505092915050565b600060808301600083015161111060008601826111cc565b50602083015184820360208601526111288282611055565b915050604083015184820360408601526111428282611055565b91505060608301516111576060860182611037565b508091505092915050565b600060808301600083015161117a60008601826111cc565b50602083015184820360208601526111928282611055565b915050604083015184820360408601526111ac8282611055565b91505060608301516111c16060860182611037565b508091505092915050565b6111d5816114ac565b82525050565b6111e4816114ac565b82525050565b60006111f682846110c7565b915081905092915050565b60006020820190506112166000830184610fb3565b92915050565b600060208201905081810360008301526112368184610fc2565b905092915050565b60006020820190508181036000830152611258818461108e565b905092915050565b6000604082019050818103600083015261127a818561108e565b9050818103602083015261128e818461108e565b90509392505050565b600060208201905081810360008301526112b18184611162565b905092915050565b60006060820190506112ce60008301866111db565b81810360208301526112e0818561108e565b905081810360408301526112f4818461108e565b9050949350505050565b600060808201905061131360008301876111db565b8181036020830152611325818661108e565b90508181036040830152611339818561108e565b90506113486060830184611046565b95945050505050565b600061135b61136c565b9050611367828261152a565b919050565b6000604051905090565b600067ffffffffffffffff82111561139157611390611602565b5b61139a82611631565b9050602081019050919050565b6000819050602082019050919050565b600081519050919050565b600081519050919050565b6000602082019050919050565b600082825260208201905092915050565b600082825260208201905092915050565b600082825260208201905092915050565b600081905092915050565b6000611423826114ac565b915061142e836114ac565b9250827fffffffffffffffffffffffffffffffffffffffffffffffffffffffffffffffff03821115611463576114626115a4565b5b828201905092915050565b60006114798261148c565b9050919050565b60008115159050919050565b600073ffffffffffffffffffffffffffffffffffffffff82169050919050565b6000819050919050565b82818337600083830152505050565b60005b838110156114e35780820151818401526020810190506114c8565b838111156114f2576000848401525b50505050565b6000600282049050600182168061151057607f821691505b60208210811415611524576115236115d3565b5b50919050565b61153382611631565b810181811067ffffffffffffffff8211171561155257611551611602565b5b80604052505050565b6000611566826114ac565b91507fffffffffffffffffffffffffffffffffffffffffffffffffffffffffffffffff821415611599576115986115a4565b5b600182019050919050565b7f4e487b7100000000000000000000000000000000000000000000000000000000600052601160045260246000fd5b7f4e487b7100000000000000000000000000000000000000000000000000000000600052602260045260246000fd5b7f4e487b7100000000000000000000000000000000000000000000000000000000600052604160045260246000fd5b6000601f19601f8301169050919050565b61164b8161146e565b811461165657600080fd5b50565b61166281611480565b811461166d57600080fd5b50565b611679816114ac565b811461168457600080fd5b5056fea2646970667358221220e657531fa48902a372600860342c52a586e7109e23b5a26d517b5d9d6b64abc164736f6c63430008040033",
  "linkReferences": {},
  "deployedLinkReferences": {}
}